:020000020000FC
:1000000012C069C0189518951895189518951895E7
:100010001895189518951895189518951895189578
:1000200018951895189504E00EBF0FE50DBF0FE168
:1000300004BB00E000936400009365000093660039
:100040000093670000936800009369000DE207BB0E
:1000500002E108BB10E51DB908E102BB65D100E073
:1000600005BF00E40BBF7894A7D000916A00839B82
:1000700004C01DE6101B29F406C017E7101B09F485
:1000800002C052D199D006B301FDEFCFC098C298FB
:1000900011E6D3D0D2D010936000CFD0109361007E
:1000A000CCD010936200C9D010936600C6D01093D4
:1000B0006700C29ACFD0C6D0C29817E1BED0BDD0DB
:1000C000C29A10FFE4CFC29817E2B7D010E4B5D0BF
:1000D000C29AC09ACACF4FB730D12FD12FEF829B8F
:1000E0002F772FD1829B2F7B2CD1829B2F7D29D1E3
:1000F000829B2F7E26D1829B277F23D1829B2B7FC1
:1001000020D1829B2D7F1DD1829B2E7F1AD12093DF
:10011000630013D112D111D110D130E020916300CE
:10012000231B61F031E020916300231B91F03FEF2E
:1001300020916300231B11F04FBF189525E00000AC
:1001400016D020E0000013D022E0000010D028D00C
:10015000F3CF209164000BD02091650008D020914E
:10016000660005D02091670002D01AD0E5CF38E0B4
:100170008A9AE0D00000000000000000000027FF85
:100180000DC08A980000D7D0D6D000008A98220FE0
:100190003A9529F00000CED00000EACFF4CF0895C0
:1001A0000000000000008A9AC6D08A98089515B30E
:1001B00004E0102715BB0895C09A44D0C098C29A95
:1001C000B9D0C2981AE239D014E337D013E435D04D
:1001D00010E133D010E131D011E02FD0C29AAAD073
:1001E000C29811E22AD011E028D0C29AA3D0C298B6
:1001F00012E223D011E021D0C29A9CD0C29815E21D
:100200001CD010916A0019D0C29A94D0C29811E300
:1002100014D015E012D0C29A8DD0C29816E20DD03B
:100220001EE00BD0C29A86D0C29810E206D01FE022
:1002300004D0C29A07D0C09A08951FB9779BFECF09
:100240001FB108950AE0FFE0E0EA3197F1F70A955F
:10025000D1F7089550916100609162000FEF51FF56
:100260000F7766FF0F7B62FF0F7D52FF0F7E57FFF8
:10027000077F56FF0B7F55FF0D7F54FF0E7F0095C4
:10028000009364000FEF63FF0F7D61FF0F7E64FF3B
:10029000077F50FF0B7F65FF0D7F67FF0E7F009587
:1002A000009365000091610003FF28C00091690080
:1002B00011E0011B39F10091680011E0011B99F573
:1002C00000E010E555FF011B54FF010F009366008D
:1002D00000E057FF010F56FF011B0093670050918C
:1002E000620053FD20C0009164000062009364002E
:1002F000009165000F7D0093650015C001E000933B
:10030000690011C00091680000FF01C004C001E055
:100310000093680004C000E00093680000C000E0A3
:100320000093690000C008950DE6839B07E70093E2
:100330006A0008950895FEDF0895FCDF00000000C4
:0C0340000895FBDFFADFF9DFF5DF089518
:00000001FF
