:020000020000FC
:1000000012C0189518951895189579C218951895D5
:100010001895189518951895189518951895189578
:1000200018951895189500E808B90FED0DBF03E075
:1000300000936000772708ED07BBC49ABFD143D077
:10004000C49811EE87D1C49AC49817E283D110E303
:1000500081D1C49A0EEB0DBD08EE0CBD02E00EBDC1
:1000600000E809BFA3D1A2D1A1D1789470FFFECF3F
:100070007727F8946DD0789446D1C49810EA6AD165
:100080001091600067D11091610064D110916200FD
:1000900061D1109167005ED1109168005BD1C49A64
:1000A000C39A7DD1C398B299FECFC49811EE52D1B4
:1000B000C49AC49817E24ED110E34CD1C49A10E20E
:1000C00015BF8895D3CFC39A71D1C398C49810E354
:1000D00041D114E33FD113E43DD110E13BD110E114
:1000E00039D111E037D1C49AC4981AE233D114E35C
:1000F00031D113E42FD110E12DD110E12BD111E03A
:1001000029D1C49AC49811E225D111E023D1C49A0F
:10011000C49812E21FD111E01DD1C49AC49815E20F
:1001200019D11091690016D1C49AC49816E212D15F
:100130001EE010D1C49AC49814E20CD11AE10AD17D
:10014000C49AC49810E206D11EE004D1C49A08955E
:1001500000278A9A15D114D1000000008A98000067
:10016000000000000000000000008A9A09D108D1B8
:10017000000000008A98000000000000000000005D
:1001800000008A9AFDD0FCD0000000008A98000090
:10019000000000000000000000008A9AF1D0F0D0BA
:1001A000000000008A98000000000000000000002D
:1001B00000008A9AE5D0E4D0000000008A98000090
:1001C000000000000000000000008A9AD9D0D8D0BA
:1001D000000000008A9800000000000000000000FD
:1001E00000008A9ACDD0CCD0000000008A98000090
:1001F000000000000000000000008A9A00000000DB
:1002000000000000000000008A98BAD0B9D00000B9
:1002100000008A9A000000000000000000000000BA
:100220008A98AED0ADD0000000008299FECFA7D052
:1002300082990160AED082990260ABD0829904604D
:10024000A8D082990860A5D082990061A2D0829935
:1002500000629FD0829900649CD0829900680093CC
:100260006500002793D08299016093D08299026043
:1002700090D0829904608DD0829908608AD082994A
:10028000006187D08299006284D08299006481D015
:100290008299006800936600002778D082990068F0
:1002A00078D08299006475D08299006272D0829968
:1002B00000616FD0829908606CD08299046069D027
:1002C0008299026066D082990160009367000027DE
:1002D0005DD0829900685DD0829900645AD082997D
:1002E000006257D08299006154D08299086051D041
:1002F000829904604ED0829902604BD0829901604D
:1003000000936800089500916500109166004FEF1A
:100310005FEF00FD4D7F01FD5F7B02FD5B7F03FD15
:100320004B7F04FD4F7705FD4F7B06FD4F7D07FD9D
:100330004F7E12FD577F13FD5D7F14FD5F7E15FD1F
:100340004E7F16FD5F7D17FD5F77409361005093F0
:10035000620008951FB901E113E10DB91DB90DB98E
:100360001DB90DB91DB90DB91DB90DB91DB90DB91D
:100370001DB90DB91DB90DB91DB91FB10895089565
:100380000000000000000895FADF0895F9DFF8DFAB
:100390000895F6DFF5DF0000000000000895F4DFA7
:1003A000F3DFF2DFF1DFF0DFEADF08950AE0FFE0DC
:1003B000E0EA3197F1F70A95D1F70895F7DFC8DE43
:1003C000A2DF1091660010952FEF121B61F41091BF
:1003D000650010952EEF121B89F0109165001095A5
:1003E0002DEF211B79F0F894E199FDCF18E01EBBA9
:1003F000E09A1DB31093690014C078941DE6109321
:10040000690004C017E71093690000C0F894E199EF
:10041000FDCF18E01EBB109169001DBBE29AE19A66
:10042000789408958A9A00000000000000000000FF
:1004300000008A98A5DFA4DF000000008A9A00006F
:10044000000000000000000000008A9899DF98DF9B
:10045000000000008A9A0000000000000000000078
:1004600000008A988DDF8CDF000000008A9A00006F
:10047000000000000000000000008A9881DF80DF9B
:10048000000000008A9A0000000000000000000048
:1004900000008A9875DF74DF000000008A9A00006F
:1004A000000000000000000000008A9869DF68DF9B
:1004B000000000008A9A0000000000000000000018
:1004C00000008A985DDF5CDF000000008A9A00006F
:1004D000000000000000000000008A9851DF50DF9B
:1004E000000000008A9A00000000000000000000E8
:1004F00000008A9845DF44DF0000000008950F9354
:100500000FB70F930EEB0DBD08EE0CBD7FEF0F91F3
:060510000FBF0F911895CA
:00000001FF
