:020000020000FC
:1000000012C05CC065C0189518951895189518957C
:100010001895189518951895189518951895189578
:1000200018951895189504E00EBF0FE50DBF09E06F
:1000300002BB01E004BB0FEF009365000093660074
:10004000DCD00DE207BB02E108BB10E51DB90FE0F3
:1000500005BF00E40BBF789449D000916400809BF9
:1000600004C01DE6101B29F406C017E7101B09F495
:1000700002C0C3D03BD006B301FDEFCFC098C298F9
:1000800011E675D074D01093610071D010936200A6
:100090006ED0109363006BD06AD0C29A6DD0C298B4
:1000A00017E165D064D0C29A10FFE9CFC29817E279
:1000B0005ED010E45CD0C29AC09ACFCF8FB7409187
:1000C000650045BB469559EF70EC7BBF8FBF189517
:1000D0008FB745BB4695539511F4409166007AE081
:1000E000751B11F470E47BBF8FBF1895C09AA7D021
:1000F000C098C29A88D0C2981AE239D014E337D097
:1001000013E435D010E133D010E131D011E02FD01D
:10011000C29A79D0C29811E22AD011E028D0C29AAE
:1001200072D0C29812E223D011E021D0C29A6BD0D3
:10013000C29815E21CD01091640019D0C29A63D005
:10014000C29811E314D015E012D0C29A5CD0C298C4
:1001500016E20DD01EE00BD0C29A55D0C29810E224
:1001600006D01FE004D0C29A6AD0C09A08951FB981
:10017000779BFECF1FB1089500916200109163003C
:100180002FEF3FEF04FF2F7705FF2F7B06FF2F7D1B
:1001900007FF2F7E02FF277F03FF2B7F16FF2D7F98
:1001A00001FF2E7F11FF377F13FF3B7F15FF3D7F40
:1001B00000FF3E7F20936500309366000091610050
:1001C00013E0101B19F012E0101B59F000916300AE
:1001D0001091660007FF177F04FF1B7F10936600D6
:1001E0000BC0009163001091660007FF177F04FFAA
:1001F0001B7F1093660000C008950DE6809B07E703
:100200000093640008950895FEDF0895FCDF000068
:1002100000000895FBDFFADFF6DF0895F7DFF6DF71
:10022000F5DFF1DF0895FADFEFDF00000895F6DF74
:10023000EBDFE9DF000000000000000008950AE0A5
:0E024000FFE0E0EA3197F1F70A95D1F7089553
:00000001FF
