:020000020000FC
:1000000012C05AC060C01895189518951895189583
:100010001895189518951895189518951895189578
:1000200018951895189504E00EBF0FE50DBF0DE06B
:1000300002BB01E004BB0FEF00936500CDD00DE2E1
:1000400007BB02E108BB10E51DB90FE005BF00ECDE
:100050000BBF78943DD000916400809B04C01DE6E6
:10006000101B29F406C017E7101B09F402C0B4D016
:100070002FD006B301FDEFCFC098C29811E669D02A
:1000800068D01093610065D01093620062D0109325
:1000900063005FD05ED0C29A61D0C29817E159D098
:1000A00058D0C29A10FFE9CFC29817E252D010E49C
:1000B00050D0C29AC09ACFCF8FB74091650045BB50
:1000C00046958FBF18958FB745BB46958FBF18953E
:1000D000C09AA4D0C098C29A85D0C2981AE239D0EA
:1000E00014E337D013E435D010E133D010E131D030
:1000F00011E02FD0C29A76D0C29811E22AD011E036
:1001000028D0C29A6FD0C29812E223D011E021D039
:10011000C29A68D0C29815E21CD01091640019D020
:10012000C29A60D0C29811E314D015E012D0C29ADE
:1001300059D0C29816E20DD01EE00BD0C29A52D010
:10014000C29810E206D01FE004D0C29A67D0C09ACD
:1001500008951FB9779BFECF1FB1089500916200EB
:10016000109163002FEF04FF2F7705FF2F7B06FF11
:100170002F7D07FF2F7E02FF277F03FF2B7F16FFB8
:100180002D7F01FF2E7F0091610013E0101B31F0E5
:1001900014E0101B41F012E0101B69F000916300A5
:1001A00002FF2B7F16C023600091620000FF2E7FAC
:1001B00001FF2D7F0EC023600091620000FF2E7FA3
:1001C00001FF2D7F0091630003FF2B7F01FF2B7F39
:1001D00000C02093650008950DE6809B07E700931B
:1001E000640008950895FEDF0895FCDF000000001C
:1001F0000895FBDFFADFF6DF0895F7DFF6DFF5DFBE
:10020000F1DF0895FADFEFDF00000895F6DFEBDF9E
:10021000E9DF000000000000000008950AE0FFE0B0
:0C022000E0EA3197F1F70A95D1F7089554
:00000001FF
