:100000001EC06CC037C036C035C034C033C032C02B
:1000100031C032C12FC02EC02DC02CC02BC02AC071
:1000200029C028C027C0E9C1E1C1D9C1D1C1C9C116
:10003000C1C1B9C1B1C1A9C1A1C199C191C11124A5
:100040001FBECFE5D4E0DEBFCDBF10E0A0E6B0E03C
:10005000E6E9F4E002C005900D92A036B107D9F7A9
:1000600010E0A0E6B0E001C01D92A538B107E1F7AD
:1000700055D10FC2C5CF87B3806387BB9598949A3B
:100080008AE085BF80E48BBFD6D10895809162005D
:10009000882331F494988FEFF7D1949A807408955F
:1000A00080E00895CF93C62F94988F718062ECD131
:1000B0008C2FEAD1949ACF910895CF93DF93EC01DE
:1000C000949881E6E1D1CE01BE0140E1BFD1949A7E
:1000D00087E060E4E7DFDF91CF9108951F920F92F0
:1000E0000FB60F9211242F933F934F935F936F930B
:1000F0007F938F939F93AF93BF93EF93FF938091E1
:100100006200882371F094988FEFBED1949A9598ED
:1001100080E06BE4C7DF959A1092620087E060E3AD
:10012000C1DFFF91EF91BF91AF919F918F917F912F
:100130006F915F914F913F912F910F900FBE0F9054
:100140001F90189585E062E0ADDF81E160E1AADFF4
:100150001092620080E06BE4A5DF959A08951F93EA
:10016000CF93DF93EB01142F94988F718DD1CE0133
:10017000BE01412F6BD1949ADF91CF911F910895C9
:100180001F93CF93DF93EB01142F94988F718062AC
:100190007BD1CE01612F6BD1949ADF91CF911F91CA
:1001A0000895BC0180E145E0EBDF0895BC0195981E
:1001B0008AE045E0E5DF959A08951F93CF93DF939A
:1001C000EC01162F809162008823E1F7959881E079
:1001D0008093620080E06AE465DF949881EE54D1F8
:1001E000949A949880EA50D1CE01612F40D1949A8C
:1001F000959ADF91CF911F91089514BA15BA85B7DA
:100200008B7F85BF83B7816083BF89B7816089BFDA
:1002100008952CE02093630088E08093640095E0CB
:100220009093650084E08093660036E03093670029
:10023000809368002093690080936A0023E02093F4
:100240006B0082E080936C0030936D0080936E00B1
:100250003AE030936F00809370002093710081E04A
:1002600080937200909373008093740099E0909350
:1002700075008093760008951F920F920FB60F922B
:1002800011242F933F934F935F936F937F938F939B
:100290009F93EF93FF93809161008F5F8093610044
:1002A000803268F11092610015BA20916000822FAF
:1002B00090E041E050E0BA0102C0660F771F2A9536
:1002C000E2F79B0140917700509178002423352379
:1002D0002115310559F023E630E0FC01EE0FFF1F38
:1002E000E20FF31F808184BB818185BB8091600018
:1002F0008F5F809360008A3010F010926000FF9151
:10030000EF919F918F917F916F915F914F913F916D
:100310002F910F900FBE0F901F9018957ADF6DDF11
:10032000AADE8FE798E3A1E081509040A040E1F77A
:1003300000C00000789406DF78946BD0A7DE882395
:1003400029F08093770010927800F8CFFFCFE82F44
:10035000F0E0EC30F10508F055C0ED5EFF4F099478
:100360008AEA9AE0909378008093770008958FEF5F
:1003700093E0909378008093770008958FEF91E059
:10038000909378008093770008958FEF90E090939A
:1003900078008093770008958FE790E0909378003D
:1003A0008093770008958FE390E090937800809396
:1003B000770008958FE190E0909378008093770024
:1003C00008958FE090E090937800809377000895EF
:1003D00087E090E09093780080937700089583E021
:1003E00090E09093780080937700089581E090E00A
:1003F000909378008093770008951092780010927F
:100400007700089585E591E09093780080937700D8
:100410000895CF93C0E08C2F9ADF8FEF90E7A2E092
:1004200081509040A040E1F700C00000CF5FCB308A
:1004300091F7CF91089587B3837C87BB87B38C6294
:1004400087BB81E58DB981E08EB90895442371F0B1
:10045000A82FB92FE62FF72F80E09D919FB9779BAA
:10046000FECF9FB191938F5F8417B9F708956623EC
:1004700051F0E82FF92F80E091919FB9779BFECF43
:100480008F5F8617C9F708958FB9779BFECF8FB11D
:060490000895F894FFCF6F
:00000001FF
