:020000020000FC
:1000000012C0189518951895189595C118951895BA
:100010001895189518951895189518951895189578
:1000200018951895189500E808B90FED0DBF01E077
:100030000093600077270CE101BB94989398929805
:1000400008ED07BBC49A48D140D0C49811EE10D136
:10005000C49AC49817E20CD110E30AD1C49A0EEBEB
:100060000DBD09EF0CBD01E00EBD00E809BF78949D
:1000700070FFFECF77276ED06AD10091670011E044
:10008000101BF9F0C49810EAF3D011E0F1D01091F0
:100090006100EED010916200EBD01FEFE9D01FEFAE
:1000A000E7D0C49AC39A09D1C398B299FECFC49835
:1000B00011EEDED0C49AC49817E2DAD010E3D8D09B
:1000C000C49A10E215BF8895D3CFC39AFDD0C398C8
:1000D000C49810E3CDD014E3CBD013E4C9D010E121
:1000E000C7D010E1C5D011E0C3D0C49AC4981AE2B9
:1000F000BFD014E3BDD013E4BBD010E1B9D010E100
:10010000B7D011E0B5D0C49AC49811E2B1D011E0D3
:10011000AFD0C49AC49812E2ABD011E0A9D0C49A6F
:10012000C49815E2A5D010916900A2D0C49AC498D1
:1001300016E29ED01EE09CD0C49AC49814E298D0D7
:100140001AE196D0C49AC49810E292D01EE090D0E2
:10015000C49A0895929A939A0FEF1FEF949A9ED0A3
:100160000000000094980000000000000000000063
:100170000000859B0D7F93980000000000000000A8
:1001800000000000939A00000000859B1F7B93985D
:100190000000000000000000939A00000000859B12
:1001A000077F93980000000000000000939A000071
:1001B0000000859B0B7F939800000000000000006A
:1001C000939A00000000859B0F7793980000000031
:1001D00000000000939A00000000859B0F7B93981D
:1001E0000000000000000000939A00000000859BC2
:1001F0000F7D93980000000000000000939A00001B
:100200000000859B0F7E9398000000000000000016
:10021000939A00000000859B0E7F939800000000D9
:1002200000000000939A00000000859B1F7D9398BA
:100230000000000000000000939A00000000859B71
:10024000177F93980000000000000000939A0000C0
:100250000000859B1D7F93980000000000000000B7
:100260009398949892980093610010936200089577
:100270001FB901E113E10DB91DB90DB91DB90DB9D2
:100280001DB90DB91DB90DB91DB90DB91DB90DB9FE
:100290001DB90DB91DB91FB10895089500000000E2
:1002A00000000895FADF0895F9DFF8DF0895F6DF1A
:1002B000F5DF0000000000000895F4DFF3DFF2DF57
:1002C000F1DFF0DFEADF08950AE0FFE0E0EA3197CE
:1002D000F1F70A95D1F708953DDF109162002FEFF5
:1002E000121B51F4109161002EEF211B81F010912F
:1002F00061002DEF211B79F0F894E199FDCF18E012
:100300001EBBE09A1DB31093690014C078941DE6DB
:100310001093690004C017E71093690000C0F894B7
:10032000E199FDCF18E01EBB109169001DBBE29A58
:10033000E19A789408950F930FB70F930EEB0DBDCC
:1003400009EF0CBD7FEF0F910FBF0F911895009132
:10035000610010916300011B19F50091620010917A
:100360006400011BE9F40091670011E0101B01F12A
:10037000009165000395009365001CE3101B09F0D4
:1003800017C0002700936500009166000395009355
:10039000660015E0101B61F401E00093670008C0DF
:1003A000002700936500009366000093670000C07B
:1003B000009161000093630000916200009364006B
:0203C00008959E
:00000001FF
