:020000020000FC
:1000000012C05CC0189518951895189518951895F4
:100010001895189518951895189518951895189578
:1000200018951895189504E00EBF0FE50DBF2FE148
:100030003FE14FE15CE10FE104BB0DE002BBBED04C
:100040000DE207BB02E108BB10E51DB901E005BFE9
:1000500000E40BBF789445D000916400809B04C0FD
:100060001DE6101B29F406C017E7101B09F402C097
:10007000A5D037D006B301FDEFCFC098C29811E6E6
:1000800071D070D0109361006DD0109362006AD06F
:100090001093630067D066D0C29A69D0A1D0C2988D
:1000A00017E160D05FD0C29A10FFE8CFC29817E284
:1000B00059D010E457D0C29AC09ACECF6FB7829968
:1000C00001C003C0839904C007C0839903C006C060
:1000D00055BB05C045BB03C035BB01C025BB6FBFC9
:1000E0001895C09A7DD0C098C29A6ED0C2981AE274
:1000F00039D014E337D013E435D010E133D010E118
:1001000031D011E02FD0C29A5FD0C29811E22AD02C
:1001100011E028D0C29A58D0C29812E223D011E040
:1001200021D0C29A51D0C29815E21CD0109164001F
:1001300019D0C29A49D0C29811E314D015E012D058
:10014000C29A42D0C29816E20DD01EE00BD0C29ADD
:100150003BD0C29810E206D01FE004D0C29A40D033
:10016000C09A08951FB9779BFECF1FB108951091D3
:1001700062000FE117FF0E7F16FF0D7F15FF0B7F4B
:1001800014FF077F402F0FE112FF077F11FF0B7F46
:1001900010FF0E7F1091630017FF0D7F302F0FE1CE
:1001A00016FF0B7F15FF0D7F14FF0E7F11FF077FDA
:1001B000202F0CE113FF077F502F08950DE6809B41
:1001C00007E70093640008950895FEDF0895FCDFBB
:1001D000000000000895FBDFFADFF9DFF5DF089586
:1001E0000AE0FFE0E0EA3197F1F70A95D1F70895C8
:00000001FF
