:020000020000FC
:1000000012C0189518951895189541C1189518950E
:100010001895189518951895189518951895189578
:1000200018951895189500E808B90FED0DBF02E076
:100030000093600000270093650000936600009322
:100040006700772703E401BB08ED07BBC49AF0D033
:1000500041D0C49811EEB8D0C49AC49817E2B4D075
:1000600010E3B2D0C49A0EEB0DBD09EF0CBD01E058
:100070000EBD00E809BF789470FFFECF77276FD0E0
:1000800012D10091670011E0101B01F1C49810EA31
:100090009BD01091600098D01091610095D0109184
:1000A000620092D01FEF90D01FEF8ED0C49AC39AF7
:1000B000B0D0C398B299FECFC49811EE85D0C49A3F
:1000C000C49817E281D010E37FD0C49A10E215BF24
:1000D0008895D2CFC39AA4D0C398C49810E374D0A3
:1000E00014E372D013E470D010E16ED010E16CD044
:1000F00011E06AD0C49AC4981AE266D014E364D0BE
:1001000013E462D010E160D010E15ED011E05CD069
:10011000C49AC49811E258D011E056D0C49AC49839
:1001200012E252D011E050D0C49AC49815E24CD0DB
:100130001091690049D0C49AC49816E245D01EE0D7
:1001400043D0C49AC49814E23FD01AE13DD0C49A77
:10015000C49810E239D01EE037D0C49A08950FEF4A
:100160001FEF909A919A969A000000000000859BDC
:10017000177F9098000000000000829B0F77839B00
:100180000F7B849B0F7D859B0F7E909A919800003A
:1001900000000000829B0E7F839B1F77849B0D7F56
:1001A000859B0B7F9098000000000000829B1F7EC3
:1001B000839B1F7D849B1F7B859B1D7F969800934F
:1001C00061001093620008951FB901E113E10DB9B8
:1001D0001DB90DB91DB90DB91DB90DB91DB90DB9AF
:1001E0001DB90DB91DB90DB91DB90DB91DB91FB195
:1001F000089508950000000000000895FADF0895B2
:10020000F9DFF8DF0895F6DFF5DF000000000000F9
:100210000895F4DFF3DFF2DFF1DFF0DFEADF0895C6
:100220000AE0FFE0E0EA3197F1F70A95D1F7089587
:1002300096DF109162002FEF121B51F410916100B4
:100240002DEF211B81F0109161002EEF211B79F021
:10025000F894E199FDCF18E01EBBE09A1DB310930E
:10026000690014C078941DE61093690004C017E774
:100270001093690000C0F894E199FDCF18E01EBB0F
:10028000109169001DBBE29AE19A789408950F934A
:100290000FB70F930EEB0DBD09EF0CBD7FEF0F9164
:1002A0000FBF0F9118950091610010916300011B21
:1002B00019F50091620010916400011BE9F40091AE
:1002C000670011E0101B01F1009165000395009398
:1002D00065001CE3101B09F017C0002700936500A0
:1002E0000091660003950093660015E0101B61F411
:1002F00001E00093670008C00027009365000093A9
:1003000066000093670000C00091610000936300E5
:0A031000009162000093640008955C
:00000001FF
