:100000001EC038C037C036C035C034C033C032C05F
:1000100031C031C02FC02EC02DC02CC02BC02AC073
:1000200029C028C027C00FC107C1FFC0F7C0EFC05B
:10003000E7C0DFC0D7C0CFC0C7C0BFC0B7C01124A2
:100040001FBECFE5D4E0DEBFCDBF10E0A0E6B0E03C
:10005000EAEFF6E002C005900D92A036B107D9F79D
:1000600010E0A0E6B0E001C01D92AA3FB107E1F7A1
:100070009CD241C3C5CF1F920F920FB60F9211248D
:100080002F933F934F935F936F937F938F939F93A0
:10009000EF93FF93809161008F5F809361008032C6
:1000A00068F11092610015BA20916000822F90E0F3
:1000B00041E050E0BA0102C0660F771F2A95E2F7CF
:1000C0009B0140917800509179002423352321151C
:1000D000310559F024E630E0FC01EE0FFF1FE20F7E
:1000E000F31F808184BB818185BB809160008F5F1D
:1000F000809360008A3010F010926000FF91EF91C1
:100100009F918F917F916F915F914F913F912F912F
:100110000F900FBE0F901F9018952CE02093640055
:1001200088E08093650095E09093660084E080937A
:10013000670036E0309368008093690020936A007E
:1001400080936B0023E020936C0082E080936D002D
:1001500030936E0080936F003AE03093700080938C
:1001600071002093720081E080937300909374007B
:100170008093750099E090937600809377000895BE
:10018000CCDF14BA15BA85B78B7F85BF83B7816082
:1001900083BF89B7816089BF0895E82FF0E0EC3014
:1001A000F10508F055C0ED5EFF4F09948AEA9AE028
:1001B000909379008093780008958FEF93E0909367
:1001C00079008093780008958FEF91E09093790003
:1001D0008093780008958FEF90E09093790080935A
:1001E000780008958FE790E09093790080937800ED
:1001F00008958FE390E090937900809378000895BC
:100200008FE190E0909379008093780008958FE0DB
:1002100090E09093790080937800089587E090E0D3
:100220009093790080937800089583E090E0909314
:10023000790080937800089581E090E090937900B0
:1002400080937800089510927900109278000895B4
:1002500085E591E090937900809378000895CF939D
:10026000C0E08C2F9ADF8FEF90E7A2E081509040A2
:10027000A040E1F700C00000CF5FCB3091F7CF91F5
:1002800008958BE08ADF8FE798E3A1E081509040EA
:10029000A040E1F700C000008CE07FDF8FE798E32B
:1002A000A1E081509040A040E1F700C00000089517
:1002B000CF93DF93823009F480C0833020F4813003
:1002C00009F09EC007C0833009F483C0843009F070
:1002D00097C08DC0CBE7D0E09091AC008881892B8E
:1002E00077D1898175D19091AC008A81892B70D1A9
:1002F0008B816ED19091AC008C81892B69D18D81DD
:1003000067D19091AC008E81892B62D18F8160D1B1
:100310009091AC008885892B5BD1898559D19091CA
:10032000AC008A85892B54D18B8552D19091AC0039
:100330008C85892B4DD18D854BD19091AC008C89CA
:10034000892B46D18D8944D19091AC008E89892B1F
:100350003FD18F893DD19091AC0088A1892B38D1B4
:1003600089A136D19091AC008AA1892B31D18BA182
:100370002FD19091AC008CA1892B2AD18DA128D1AD
:100380009091AC008EA1892B23D18FA121D1909186
:10039000AC0088A5892B1CD189A51AD19091AC00FD
:1003A0008AA5892B15D18BA513D19091AC008CA572
:1003B000892B0ED18DA50CD123C0CBE7D0E0909135
:1003C000AC008881892B04D19AA98981892B00D11D
:1003D00017C0CBE7D0E09091AC008881892BF8D092
:1003E0009AA98981892B98A9892BF2D009C090916B
:1003F000AC0080918900892BEBD080918A00E8D0F5
:1004000080E000D1DF91CF91089582B3959887E085
:100410008093890080E780938A0084E049DF959A81
:10042000089510927B0080E28093AC001092AB00A4
:1004300082E08093AD003CDF95988AE18A95F1F7E0
:1004400000C0089510927B0080E28093AC0081E0B0
:100450008093AB0082E08093AD0083E029DF959A22
:100460008AE18A95F1F700C0089510927B0088E038
:1004700080937C0081E080937D0010927E0082E07A
:1004800080937F0083E0809380008093810080933D
:10049000820094E0909383008093840095E0909391
:1004A00085009CE09093860096E09093870097E00B
:1004B000909388009AE090938F0097EE909390002D
:1004C0002BE02093910022EC2093920020E12093D6
:1004D0009B0090939C0091E190939D0080939E00DF
:1004E00082E180939F001092A00083E18093A1009D
:1004F0001092A20084E18093A3001092A40085E1F1
:100500008093A5001092A60086E18093A700109228
:10051000A80080E28093AC0081E0CADE08958FE6F7
:1005200097E10197F1F700C0000043D09598949AA5
:100530009CDF089595988AE18A95F1F700C081E6DD
:100540008093B0001092B20043D08091B20040D0AE
:100550008091B2003DD08091B2003AD081E052D07B
:10056000959A08959DD0089580EA8093AF002DD08C
:100570008091AF002DD081E42BD082E429D083E498
:1005800027D081E03FD0959A8AE18A95F1F700C0A3
:1005900095980895959A8AE18A95F1F700C0959803
:1005A000089581E0839B80E00895EADD789457DE2A
:1005B000FECFBD9ABB9A8C9A8D9ABB988B98709AF5
:1005C00080E58DB91092630008951092630008953C
:1005D00090916300E6EBF0E0E90FF11D80839F5FEF
:1005E0009093630008958FB9779BFECF809163004D
:1005F0008F5F8093630080916200815080936200DE
:100600008FB10895AF92BF92CF92DF92EF92FF9297
:100610000F931F93CF93DF93F82E80916300809305
:10062000620010926300EE2406EB10E00F2EF8ED4E
:10063000CF2EF0E0DF2EF02DBB24BA94AA241CC0EC
:1006400094988AE18A95F1F700C0C0916300D0E0E8
:10065000F801EC0FFD1F8081C6DFCC0DDD1D888306
:10066000FF2051F4EE2039F0949A8AE18A95F1F74F
:1006700000C0EA2C01C0EB2C80916200882301F7B6
:10068000949A8AE18A95F1F700C0DF91CF911F918A
:100690000F91FF90EF90DF90CF90BF90AF900895B3
:1006A00080936300E8EDF0E0E80FF11D808108958C
:1006B00094989AE19A95F1F700C095DF8093B50080
:1006C00080E091DF8093D80080E08DDF8093D900B7
:1006D00080E089DF8093DA0080E085DF8093DB00B3
:1006E00080E081DF8093DC0080E07DDF8093DD00AF
:0A06F0006CDF949A0895F894FFCF90
:00000001FF
