:100000001EC038C037C036C035C034C033C032C05F
:1000100031C070C02FC02EC02DC02CC02BC02AC034
:1000200029C028C027C013C10BC103C1FBC0F3C046
:10003000EBC0E3C0DBC0D3C0CBC0C3C0BBC0112486
:100040001FBECFE5D4E0DEBFCDBF10E0A0E6B0E03C
:10005000E0EBF2E002C005900D92A036B107D9F7AF
:1000600010E0A0E6B0E001C01D92AA37B107E1F7A9
:1000700093D01CC1C5CF14BA15BA85B78B7F85BF85
:1000800083B7816083BF89B7816089BF08952CE001
:100090002093640088E08093650095E0909366006B
:1000A00084E08093670036E03093680080936900B5
:1000B00020936A0080936B0023E020936C0082E021
:1000C00080936D0030936E0080936F003AE0309320
:1000D0007000809371002093720081E08093730020
:1000E000909374008093750099E0909376008093CC
:1000F000770008951F920F920FB60F9211242F933D
:100100003F934F935F936F937F938F939F93EF935F
:10011000FF93809163008F5F80936300803268F16A
:100120001092630015BA20916200822F90E041E0A6
:1001300050E0BA0102C0660F771F2A95E2F79B01D3
:100140004091780050917900242335232115310501
:1001500059F024E630E0FC01EE0FFF1FE20FF31F21
:10016000808184BB818185BB809162008F5F809399
:1001700062008A3010F010926200FF91EF919F911F
:100180008F917F916F915F914F913F912F910F9040
:100190000FBE0F901F9018957ADF6DDF789463D0B3
:1001A000FECFE82FF0E0EC30F10508F055C0ED5E31
:1001B000FF4F09948AEA9AE090937900809378003F
:1001C00008958FEF93E090937900809378000895DD
:1001D0008FEF91E0909379008093780008958FEFEE
:1001E00090E0909379008093780008958FE790E0F5
:1001F000909379008093780008958FE390E0909336
:1002000079008093780008958FE190E090937900D1
:100210008093780008958FE090E090937900809328
:100220007800089587E090E09093790080937800BB
:10023000089583E090E0909379008093780008958A
:1002400081E090E090937900809378000895109277
:10025000790010927800089585E591E090937900F7
:10026000809378000895CF93C0E08C2F9ADF8FE3BE
:100270009DE0A3E081509040A040E1F700C0000065
:10028000CF5FCB3091F7CF9108958BE08ADF83ED7C
:1002900090E30197F1F700C000008CE082DF83ED6E
:1002A00090E30197F1F700C000000895F894FFCFA4
:00000001FF
