:100000001EC02DC02CC02BC02AC029C028C027C0AC
:1000100026C026C024C023C022C021C020C01FC0CB
:100020001EC01DC01CC002C1FAC0F2C0EAC0E2C0BE
:10003000DAC0D2C0CAC0C2C0BAC0B2C0AAC01124FD
:100040001FBECFE5D4E0DEBFCDBF20E0A0E6B0E02C
:1000500001C01D92AA3FB207E1F775D201C3D0CF0C
:100060001F920F920FB60F9211242F933F934F932D
:100070005F938F939F93EF93FF93809161008F5FC6
:10008000803218F4809361002EC01092610015BA7E
:1000900020916000422F50E081E090E002C0880F84
:1000A000991F2A95E2F720917800309179008223F8
:1000B0009323892B71F0FA01EE0FFF1FEC59FF4FCC
:1000C000808184BBFA01EE0FFF1FEC59FF4F818145
:1000D00085BB809160008F5F8A3018F48093600048
:1000E00002C010926000FF91EF919F918F915F91FC
:1000F0004F913F912F910F900FBE0F901F90189529
:100100002CE02093640088E08093650095E0909354
:10011000660084E08093670036E030936800809347
:10012000690020936A0080936B0023E020936C00A9
:1001300082E080936D0030936E0080936F003AE010
:1001400030937000809371002093720081E080935F
:100150007300909374008093750099E090937600FB
:10016000809377000895CCDF14BA15BA85B78B7FDA
:1001700085BF83B7816083BF89B7816089BF0895D8
:10018000E82FF0E0EC30F10508F055C0ED5EFF4FD0
:1001900009948AEA9AE09093790080937800089510
:1001A0008FEF93E0909379008093780008958FEF1C
:1001B00091E0909379008093780008958FEF90E01C
:1001C000909379008093780008958FE790E0909362
:1001D00079008093780008958FE390E09093790000
:1001E0008093780008958FE190E090937900809358
:1001F000780008958FE090E09093790080937800E4
:10020000089587E090E090937900809378000895B6
:1002100083E090E09093790080937800089581E0E6
:1002200090E090937900809378000895109279007F
:1002300010927800089585E591E09093790080937D
:1002400078000895CF93C0E08C2F9ADF2FE789EADA
:1002500093E0215080409040E1F700C00000CF5F64
:10026000CB3091F7CAE08C2F8BDF2FE789EA93E040
:10027000215080409040E1F700C00000C15099F744
:10028000CF910895CF93DF93823009F48FC020F48B
:10029000813009F0B1C007C0833009F494C08430C4
:1002A00009F0AAC0A0C0CCEAD0E0988180917B0080
:1002B000892B81D180917C007ED1988180917D00B5
:1002C000892B79D180917E0076D1988180917F00B1
:1002D000892B71D1809180006ED1988180918100AD
:1002E000892B69D18091820066D1988180918300A9
:1002F000892B61D1809184005ED1988180918500A5
:10030000892B59D18091860056D1988180918700A0
:10031000892B51D1809188004ED1988180918F0096
:10032000892B49D18091900046D19881809191008C
:10033000892B41D1809192003ED1988180919B0080
:10034000892B39D180919C0036D1988180919D0074
:10035000892B31D180919E002ED1988180919F0070
:10036000892B29D18091A00026D198818091A1006C
:10037000892B21D18091A2001ED198818091A30068
:10038000892B19D18091A40016D198818091A50064
:10039000892B11D18091A6000ED198818091A70060
:1003A000892B09D18091A80006D126C09091AC007C
:1003B00080917B00892BFFD09091AD0080917C00D3
:1003C000892BF9D019C09091AC0080917B00892BCA
:1003D000F2D09091AD0080917C00892B9091AB0080
:1003E000892BE9D009C09091AC0080918900892BBC
:1003F000E2D080918A00DFD080E0F7D0DF91CF910A
:100400000895CF93C2B3959887E08093890080E7E1
:1004100080938A0084E036DFC5FD959ACF910895D8
:1004200010927B0080E28093AC001092AB0082E0DF
:100430008093AD0027DF959888E28A95F1F70895BB
:1004400010927B0088E080937C0081E080937D00A7
:1004500010927E0082E080937F0083E08093800092
:10046000809381008093820094E090938300809336
:10047000840095E0909385009CE09093860096E040
:100480009093870097E0909388009AE090938F0074
:1004900097EE909390002BE02093910022EC209314
:1004A000920020E120939B0090939C0091E1909317
:1004B0009D0080939E0082E180939F001092A00097
:1004C00083E18093A1001092A20084E18093A300B5
:1004D0001092A40085E18093A5001092A60086E109
:1004E0008093A7001092A80080E28093AC0081E086
:1004F000C9DE089587E293E20197F1F700C000009A
:1005000048D09598949A9CDF0895CF93DF93CFEAD3
:10051000D0E080EA88834CD088814DD081E04BD0F8
:1005200082E049D083E047D081E05FD0959A88E2AD
:100530008A95F1F79598DF91CF91089580B383FB69
:10054000882780F90895789424D0D4DF69DF59DFB3
:100550000ADE78DEDADFF2DF882311F08CE010DECD
:100560002FE78EEE96E3215080409040E1F700C0E7
:10057000000047DFE3DF882311F08BE001DE2FE787
:100580008EEE96E3215080409040E1F700C00000DD
:10059000E1CFBA9ABD9ABB9A8C9A8D9ABB988B98E8
:1005A00080E58DB9709A10926300109262000895F0
:1005B00010926300089590916300E92FF0E0EA54EF
:1005C000FF4F80839F5F9093630008958FB9779B5F
:1005D000FECF809163008F5F809363008091620003
:1005E0008150809362008FB10895EF92FF920F9334
:1005F0001F93CF93DF93182F809163008093620045
:100600001092630000E0FF24FA94E12C1AC0949841
:1006100088E28A95F1F7C0916300D0E0FE01EA54C8
:10062000FF4F8081D3DFC852DF4F8883111109C08B
:10063000002331F0949A88E28A95F1F70E2D01C0DB
:100640000F2D909162009111E2CF949A88E28A95E1
:10065000F1F7DF91CF911F910F91FF90EF900895E7
:04066000F894FFCF3C
:00000001FF
